{
  "contractName": "Exchange",
  "abi": [
    {
      "inputs": [
        {
          "internalType": "address",
          "name": "_feeAccount",
          "type": "address"
        },
        {
          "internalType": "uint256",
          "name": "_feePercent",
          "type": "uint256"
        }
      ],
      "payable": false,
      "stateMutability": "nonpayable",
      "type": "constructor"
    },
    {
      "anonymous": false,
      "inputs": [
        {
          "indexed": false,
          "internalType": "uint256",
          "name": "id",
          "type": "uint256"
        },
        {
          "indexed": false,
          "internalType": "address",
          "name": "user",
          "type": "address"
        },
        {
          "indexed": false,
          "internalType": "address",
          "name": "tokenGet",
          "type": "address"
        },
        {
          "indexed": false,
          "internalType": "uint256",
          "name": "amountGet",
          "type": "uint256"
        },
        {
          "indexed": false,
          "internalType": "address",
          "name": "tokenGive",
          "type": "address"
        },
        {
          "indexed": false,
          "internalType": "uint256",
          "name": "amountGive",
          "type": "uint256"
        },
        {
          "indexed": false,
          "internalType": "uint256",
          "name": "timestamp",
          "type": "uint256"
        }
      ],
      "name": "Cancel",
      "type": "event"
    },
    {
      "anonymous": false,
      "inputs": [
        {
          "indexed": false,
          "internalType": "address",
          "name": "token",
          "type": "address"
        },
        {
          "indexed": false,
          "internalType": "address",
          "name": "user",
          "type": "address"
        },
        {
          "indexed": false,
          "internalType": "uint256",
          "name": "amount",
          "type": "uint256"
        },
        {
          "indexed": false,
          "internalType": "uint256",
          "name": "balance",
          "type": "uint256"
        }
      ],
      "name": "Deposit",
      "type": "event"
    },
    {
      "anonymous": false,
      "inputs": [
        {
          "indexed": false,
          "internalType": "uint256",
          "name": "id",
          "type": "uint256"
        },
        {
          "indexed": false,
          "internalType": "address",
          "name": "user",
          "type": "address"
        },
        {
          "indexed": false,
          "internalType": "address",
          "name": "tokenGet",
          "type": "address"
        },
        {
          "indexed": false,
          "internalType": "uint256",
          "name": "amountGet",
          "type": "uint256"
        },
        {
          "indexed": false,
          "internalType": "address",
          "name": "tokenGive",
          "type": "address"
        },
        {
          "indexed": false,
          "internalType": "uint256",
          "name": "amountGive",
          "type": "uint256"
        },
        {
          "indexed": false,
          "internalType": "uint256",
          "name": "timestamp",
          "type": "uint256"
        }
      ],
      "name": "Order",
      "type": "event"
    },
    {
      "anonymous": false,
      "inputs": [
        {
          "indexed": false,
          "internalType": "uint256",
          "name": "id",
          "type": "uint256"
        },
        {
          "indexed": false,
          "internalType": "address",
          "name": "user",
          "type": "address"
        },
        {
          "indexed": false,
          "internalType": "address",
          "name": "tokenGet",
          "type": "address"
        },
        {
          "indexed": false,
          "internalType": "uint256",
          "name": "amountGet",
          "type": "uint256"
        },
        {
          "indexed": false,
          "internalType": "address",
          "name": "tokenGive",
          "type": "address"
        },
        {
          "indexed": false,
          "internalType": "uint256",
          "name": "amountGive",
          "type": "uint256"
        },
        {
          "indexed": false,
          "internalType": "address",
          "name": "userFill",
          "type": "address"
        },
        {
          "indexed": false,
          "internalType": "uint256",
          "name": "timestamp",
          "type": "uint256"
        }
      ],
      "name": "Trade",
      "type": "event"
    },
    {
      "anonymous": false,
      "inputs": [
        {
          "indexed": false,
          "internalType": "address",
          "name": "token",
          "type": "address"
        },
        {
          "indexed": false,
          "internalType": "address",
          "name": "user",
          "type": "address"
        },
        {
          "indexed": false,
          "internalType": "uint256",
          "name": "amount",
          "type": "uint256"
        },
        {
          "indexed": false,
          "internalType": "uint256",
          "name": "balance",
          "type": "uint256"
        }
      ],
      "name": "Withdraw",
      "type": "event"
    },
    {
      "payable": false,
      "stateMutability": "nonpayable",
      "type": "fallback"
    },
    {
      "constant": true,
      "inputs": [
        {
          "internalType": "uint256",
          "name": "",
          "type": "uint256"
        }
      ],
      "name": "cancelledOrders",
      "outputs": [
        {
          "internalType": "bool",
          "name": "",
          "type": "bool"
        }
      ],
      "payable": false,
      "stateMutability": "view",
      "type": "function"
    },
    {
      "constant": true,
      "inputs": [],
      "name": "feeAccount",
      "outputs": [
        {
          "internalType": "address",
          "name": "",
          "type": "address"
        }
      ],
      "payable": false,
      "stateMutability": "view",
      "type": "function"
    },
    {
      "constant": true,
      "inputs": [],
      "name": "feePercent",
      "outputs": [
        {
          "internalType": "uint256",
          "name": "",
          "type": "uint256"
        }
      ],
      "payable": false,
      "stateMutability": "view",
      "type": "function"
    },
    {
      "constant": true,
      "inputs": [
        {
          "internalType": "uint256",
          "name": "",
          "type": "uint256"
        }
      ],
      "name": "filledOrders",
      "outputs": [
        {
          "internalType": "bool",
          "name": "",
          "type": "bool"
        }
      ],
      "payable": false,
      "stateMutability": "view",
      "type": "function"
    },
    {
      "constant": true,
      "inputs": [],
      "name": "orderCount",
      "outputs": [
        {
          "internalType": "uint256",
          "name": "",
          "type": "uint256"
        }
      ],
      "payable": false,
      "stateMutability": "view",
      "type": "function"
    },
    {
      "constant": true,
      "inputs": [
        {
          "internalType": "uint256",
          "name": "",
          "type": "uint256"
        }
      ],
      "name": "orders",
      "outputs": [
        {
          "internalType": "uint256",
          "name": "id",
          "type": "uint256"
        },
        {
          "internalType": "address",
          "name": "user",
          "type": "address"
        },
        {
          "internalType": "address",
          "name": "tokenGet",
          "type": "address"
        },
        {
          "internalType": "uint256",
          "name": "amountGet",
          "type": "uint256"
        },
        {
          "internalType": "address",
          "name": "tokenGive",
          "type": "address"
        },
        {
          "internalType": "uint256",
          "name": "amountGive",
          "type": "uint256"
        },
        {
          "internalType": "uint256",
          "name": "timestamp",
          "type": "uint256"
        }
      ],
      "payable": false,
      "stateMutability": "view",
      "type": "function"
    },
    {
      "constant": true,
      "inputs": [
        {
          "internalType": "address",
          "name": "",
          "type": "address"
        },
        {
          "internalType": "address",
          "name": "",
          "type": "address"
        }
      ],
      "name": "tokens",
      "outputs": [
        {
          "internalType": "uint256",
          "name": "",
          "type": "uint256"
        }
      ],
      "payable": false,
      "stateMutability": "view",
      "type": "function"
    },
    {
      "constant": false,
      "inputs": [
        {
          "internalType": "uint256",
          "name": "_amount",
          "type": "uint256"
        }
      ],
      "name": "withdrawEther",
      "outputs": [],
      "payable": false,
      "stateMutability": "nonpayable",
      "type": "function"
    },
    {
      "constant": false,
      "inputs": [],
      "name": "depositEther",
      "outputs": [],
      "payable": true,
      "stateMutability": "payable",
      "type": "function"
    },
    {
      "constant": false,
      "inputs": [
        {
          "internalType": "address",
          "name": "_token",
          "type": "address"
        },
        {
          "internalType": "uint256",
          "name": "_amount",
          "type": "uint256"
        }
      ],
      "name": "withdrawToken",
      "outputs": [],
      "payable": false,
      "stateMutability": "nonpayable",
      "type": "function"
    },
    {
      "constant": false,
      "inputs": [
        {
          "internalType": "address",
          "name": "_token",
          "type": "address"
        },
        {
          "internalType": "uint256",
          "name": "_amount",
          "type": "uint256"
        }
      ],
      "name": "depositToken",
      "outputs": [],
      "payable": false,
      "stateMutability": "nonpayable",
      "type": "function"
    },
    {
      "constant": true,
      "inputs": [
        {
          "internalType": "address",
          "name": "_token",
          "type": "address"
        },
        {
          "internalType": "address",
          "name": "_user",
          "type": "address"
        }
      ],
      "name": "balanceOf",
      "outputs": [
        {
          "internalType": "uint256",
          "name": "",
          "type": "uint256"
        }
      ],
      "payable": false,
      "stateMutability": "view",
      "type": "function"
    },
    {
      "constant": false,
      "inputs": [
        {
          "internalType": "address",
          "name": "_tokenGet",
          "type": "address"
        },
        {
          "internalType": "uint256",
          "name": "_amountGet",
          "type": "uint256"
        },
        {
          "internalType": "address",
          "name": "_tokenGive",
          "type": "address"
        },
        {
          "internalType": "uint256",
          "name": "_amountGive",
          "type": "uint256"
        }
      ],
      "name": "makeOrder",
      "outputs": [],
      "payable": false,
      "stateMutability": "nonpayable",
      "type": "function"
    },
    {
      "constant": false,
      "inputs": [
        {
          "internalType": "uint256",
          "name": "_id",
          "type": "uint256"
        }
      ],
      "name": "cancelOrder",
      "outputs": [],
      "payable": false,
      "stateMutability": "nonpayable",
      "type": "function"
    },
    {
      "constant": false,
      "inputs": [
        {
          "internalType": "uint256",
          "name": "_id",
          "type": "uint256"
        }
      ],
      "name": "fillOrder",
      "outputs": [],
      "payable": false,
      "stateMutability": "nonpayable",
      "type": "function"
    }
  ],
  "bytecode": "0x608060405234801561001057600080fd5b506040516111123803806111128339818101604052604081101561003357600080fd5b508051602090910151600080546001600160a01b0319166001600160a01b039093169290921782556001556110a490819061006e90396000f3fe6080604052600436106100e85760003560e01c806367b830ad1161008a5780639e281a98116100595780639e281a98146102e8578063a85c38ef14610321578063bc15e60114610393578063f7888aec146103bd576100e8565b806367b830ad1461025a5780637fd6f15c1461028457806398ea5fca146102995780639a5c90aa146102a1576100e8565b80633bed33ce116100c65780633bed33ce1461019a578063508493bc146101c4578063514fcac7146101ff57806365e17c9d14610229576100e8565b806316eea7d5146100fa5780632453ffa814610138578063338b5dea1461015f575b3480156100f457600080fd5b50600080fd5b34801561010657600080fd5b506101246004803603602081101561011d57600080fd5b50356103f8565b604080519115158252519081900360200190f35b34801561014457600080fd5b5061014d61040d565b60408051918252519081900360200190f35b34801561016b57600080fd5b506101986004803603604081101561018257600080fd5b506001600160a01b038135169060200135610413565b005b3480156101a657600080fd5b50610198600480360360208110156101bd57600080fd5b5035610524565b3480156101d057600080fd5b5061014d600480360360408110156101e757600080fd5b506001600160a01b03813581169160200135166105df565b34801561020b57600080fd5b506101986004803603602081101561022257600080fd5b50356105fc565b34801561023557600080fd5b5061023e6106c8565b604080516001600160a01b039092168252519081900360200190f35b34801561026657600080fd5b506101986004803603602081101561027d57600080fd5b50356106d7565b34801561029057600080fd5b5061014d610854565b61019861085a565b3480156102ad57600080fd5b50610198600480360360808110156102c457600080fd5b506001600160a01b03813581169160208101359160408201351690606001356108de565b3480156102f457600080fd5b506101986004803603604081101561030b57600080fd5b506001600160a01b038135169060200135610aa6565b34801561032d57600080fd5b5061034b6004803603602081101561034457600080fd5b5035610b5e565b604080519788526001600160a01b0396871660208901529486168786015260608701939093529316608085015260a084019290925260c0830191909152519081900360e00190f35b34801561039f57600080fd5b50610124600480360360208110156103b657600080fd5b5035610baa565b3480156103c957600080fd5b5061014d600480360360408110156103e057600080fd5b506001600160a01b0381358116916020013516610bbf565b60056020526000908152604090205460ff1681565b60065481565b6001600160a01b03821661042657600080fd5b604080516323b872dd60e01b81523360048201523060248201526044810183905290516001600160a01b038416916323b872dd9160648083019260209291908290030181600087803b15801561047b57600080fd5b505af115801561048f573d6000803e3d6000fd5b505050506040513d60208110156104a557600080fd5b50516104b057600080fd5b6001600160a01b0382166000818152600260209081526040808320338085529083529281902080548601908190558151948552918401929092528282018490526060830152517fdcbc1c05240f31ff3ad067ef1ee35ce4997762752e3a095284754544f4c709d79181900360800190a15050565b3360009081527fac33ff75c19e70fe83507db0d683fd3465c996598dc972688b7ace676c89077b602052604090205481111561055f57600080fd5b3360008181527fac33ff75c19e70fe83507db0d683fd3465c996598dc972688b7ace676c89077b60209081526040808320805486900390819055815193845291830193909352818301849052606082015290517ff341246adaac6f497bc2a656f546ab9e182111d630394f0c57c710a59a2cb5679181900360800190a150565b600260209081526000928352604080842090915290825290205481565b60008181526003602052604090208054821461061757600080fd5b60018101546001600160a01b0316331461063057600080fd5b600082815260046020818152604092839020805460ff1916600117905560028401546003850154928501546005860154855188815233948101949094526001600160a01b0392831684870152606084019490945216608082015260a08101919091524260c082015290517f77de1da0be5f2d3b110d05c6694e5c4ff2d9da7cd23d84353ecf78c7b5acec619181900360e00190a15050565b6000546001600160a01b031681565b6000811180156106e957506006548111155b61072d576040805162461bcd60e51b815260206004820152601060248201526f125b9d985b1a59081bdc99195c881a5960821b604482015290519081900360640190fd5b60008181526005602052604090205460ff1615610788576040805162461bcd60e51b815260206004820152601460248201527313dc99195c88185b1c9958591e48199a5b1b195960621b604482015290519081900360640190fd5b60008181526004602052604090205460ff16156107ec576040805162461bcd60e51b815260206004820152601d60248201527f43616e6e6f742066696c6c20612063616e63656c6c6564206f72646572000000604482015290519081900360640190fd5b600081815260036020819052604090912080546001820154600283015493830154600484015460058501549495610837956001600160a01b0394851694918216939290911690610bea565b546000908152600560205260409020805460ff1916600117905550565b60015481565b3360008181527fac33ff75c19e70fe83507db0d683fd3465c996598dc972688b7ace676c89077b602090815260408083208054349081019182905582519485529284019490945282810191909152606082019290925290517fdcbc1c05240f31ff3ad067ef1ee35ce4997762752e3a095284754544f4c709d79181900360800190a1565b6006546001016006819055506040518060e001604052806006548152602001336001600160a01b03168152602001856001600160a01b03168152602001848152602001836001600160a01b03168152602001828152602001428152506003600060065481526020019081526020016000206000820151816000015560208201518160010160006101000a8154816001600160a01b0302191690836001600160a01b0316021790555060408201518160020160006101000a8154816001600160a01b0302191690836001600160a01b031602179055506060820151816003015560808201518160040160006101000a8154816001600160a01b0302191690836001600160a01b0316021790555060a0820151816005015560c082015181600601559050507f9d33853d43e3607b4cc01fdc78338ff2dca6fef7db9232dae6d3eb55fbc3b10960065433868686864260405180888152602001876001600160a01b03166001600160a01b03168152602001866001600160a01b03166001600160a01b03168152602001858152602001846001600160a01b03166001600160a01b0316815260200183815260200182815260200197505050505050505060405180910390a150505050565b6001600160a01b038216610ab957600080fd5b6001600160a01b0382166000908152600260209081526040808320338452909152902054811115610ae957600080fd5b6001600160a01b038216600081815260026020908152604080832033808552908352928190208054869003908190558151948552918401929092528282018490526060830152517ff341246adaac6f497bc2a656f546ab9e182111d630394f0c57c710a59a2cb5679181900360800190a15050565b6003602081905260009182526040909120805460018201546002830154938301546004840154600585015460069095015493956001600160a01b03938416959084169492939091169187565b60046020526000908152604090205460ff1681565b6001600160a01b03918216600090815260026020908152604080832093909416825291909152205490565b60006064600154830281610bfa57fe5b0490508360026000876001600160a01b03166001600160a01b031681526020019081526020016000206000336001600160a01b03166001600160a01b03168152602001908152602001600020540360026000876001600160a01b03166001600160a01b031681526020019081526020016000206000336001600160a01b03166001600160a01b03168152602001908152602001600020819055508360026000876001600160a01b03166001600160a01b031681526020019081526020016000206000886001600160a01b03166001600160a01b03168152602001908152602001600020540160026000876001600160a01b03166001600160a01b031681526020019081526020016000206000886001600160a01b03166001600160a01b03168152602001908152602001600020819055508160026000876001600160a01b03166001600160a01b031681526020019081526020016000206000336001600160a01b03166001600160a01b03168152602001908152602001600020540160026000856001600160a01b03166001600160a01b031681526020019081526020016000206000336001600160a01b03166001600160a01b03168152602001908152602001600020819055508160026000876001600160a01b03166001600160a01b031681526020019081526020016000206000886001600160a01b03166001600160a01b03168152602001908152602001600020540360026000856001600160a01b03166001600160a01b031681526020019081526020016000206000886001600160a01b03166001600160a01b03168152602001908152602001600020819055508060026000876001600160a01b03166001600160a01b031681526020019081526020016000206000336001600160a01b03166001600160a01b03168152602001908152602001600020540360026000876001600160a01b03166001600160a01b031681526020019081526020016000206000336001600160a01b03166001600160a01b03168152602001908152602001600020819055508060026000876001600160a01b03166001600160a01b0316815260200190815260200160002060008060009054906101000a90046001600160a01b03166001600160a01b03166001600160a01b03168152602001908152602001600020540160026000876001600160a01b03166001600160a01b0316815260200190815260200160002060008060009054906101000a90046001600160a01b03166001600160a01b03166001600160a01b03168152602001908152602001600020819055507f0dddf4182dc0fc1a311cb75f049c97403c6b8a99cf6b2229a36e7c526acb3f81878787878787334260405180898152602001886001600160a01b03166001600160a01b03168152602001876001600160a01b03166001600160a01b03168152602001868152602001856001600160a01b03166001600160a01b03168152602001848152602001836001600160a01b03166001600160a01b031681526020018281526020019850505050505050505060405180910390a15050505050505056fea265627a7a723158203b4d120cf41696b79cddaa98d0c952147e57eda75975701460ec89ab992faf0064736f6c63430005100032",
  "source": "pragma solidity ^0.5.0;\n\nimport './Token.sol';\n\n// Deposit & Withdraw Funds\n// Manage Orders - Make or Cancel\n// Handle Trades\n\n// TODO\n// [] Set the fee account\n// [] Deposit Ether\n\ncontract Exchange {\n\n    // State variables\n    address public feeAccount; // the account that receives the exchange fees\n    uint256 public feePercent; // the fee percentage\n    address constant ETHER = address(0);\n    mapping(address => mapping(address => uint256)) public tokens; // Token balance of users for each token type\n    mapping(uint256 => _Order) public orders;\n    mapping(uint256 => bool) public cancelledOrders;\n    mapping(uint256 => bool) public filledOrders;\n    uint256 public orderCount;\n    \n    event Deposit(address token, address user, uint256 amount, uint256 balance);\n    event Withdraw(address token, address user, uint256 amount, uint256 balance);\n    event Order(uint256 id, address user, address tokenGet, uint256 amountGet, address tokenGive,uint256 amountGive, uint256 timestamp);\n    event Cancel(uint256 id, address user, address tokenGet, uint256 amountGet, address tokenGive,uint256 amountGive, uint256 timestamp);\n    event Trade(uint256 id, address user, address tokenGet, uint256 amountGet, address tokenGive,uint256 amountGive, address userFill,  uint256 timestamp);\n\n    struct _Order {\n        uint256 id;\n        address user;\n        address tokenGet;\n        uint256 amountGet;\n        address tokenGive;\n        uint256 amountGive;\n        uint256 timestamp;\n    }\n\n\n    constructor(address _feeAccount, uint256 _feePercent) public {\n        feeAccount = _feeAccount;\n        feePercent = _feePercent;\n    }\n\n    // Revert if someone sends ether accidentally \n    function() external{\n        revert();\n    }\n\n\n    function withdrawEther(uint256 _amount) public {\n        require(tokens[ETHER][msg.sender] >= _amount);\n        tokens[ETHER][msg.sender] = tokens[ETHER][msg.sender] - _amount;\n        emit Withdraw(ETHER, msg.sender, _amount, tokens[ETHER][msg.sender]);\n   }\n\n    function depositEther() payable public { // to read msg.value (ether value), the method should be payable\n        tokens[ETHER][msg.sender] = tokens[ETHER][msg.sender] + msg.value;\n        emit Deposit(ETHER, msg.sender, msg.value, tokens[ETHER][msg.sender]);\n    }\n\n    function withdrawToken(address _token, uint256 _amount) public {\n        require(_token != ETHER);\n        require(tokens[_token][msg.sender] >= _amount);\n        tokens[_token][msg.sender] = tokens[_token][msg.sender] - _amount;\n        emit Withdraw(_token, msg.sender, _amount, tokens[_token][msg.sender]);\n    }\n\n    function depositToken(address _token, uint _amount) public {\n        require(_token != ETHER);\n        require(Token(_token).transferFrom(msg.sender, address(this), _amount)); // Must return a truth-y value\n        tokens[_token][msg.sender] = tokens[_token][msg.sender] + _amount;\n        emit Deposit(_token, msg.sender, _amount, tokens[_token][msg.sender]);\n    }\n\n    function balanceOf(address _token, address _user) public view returns(uint256) {\n        return tokens[_token][_user];\n    }\n\n    function makeOrder(address _tokenGet, uint256 _amountGet, address _tokenGive,uint256 _amountGive) public {\n        orderCount = orderCount+1;\n        orders[orderCount] = _Order(orderCount, msg.sender, _tokenGet, _amountGet, _tokenGive, _amountGive, now);\n        emit Order(orderCount, msg.sender, _tokenGet, _amountGet, _tokenGive, _amountGive, now);\n    }\n\n    function cancelOrder(uint256 _id) public {\n        _Order storage _order = orders[_id];\n        // Must be a valid order\n        require(_order.id == _id); // _order.id will be empty if orders[_id] doesn't exist\n        // Must be my order\n        require(address(_order.user) == msg.sender);\n        cancelledOrders[_id] = true;\n        emit Cancel(_id, msg.sender, _order.tokenGet, _order.amountGet, _order.tokenGive, _order.amountGive, now);\n    }\n\n    function fillOrder(uint256 _id) public {\n        require(_id > 0 && _id <= orderCount, \"Invalid order id\");\n        require(!filledOrders[_id], \"Order already filled\");\n        require(!cancelledOrders[_id], \"Cannot fill a cancelled order\");\n        // Fetch the order\n        _Order storage _order = orders[_id];\n        _trade(_order.id, _order.user, _order.tokenGet, _order.amountGet, _order.tokenGive, _order.amountGive);\n        // Mark order as filled\n        filledOrders[_order.id] = true;\n    }\n\n    function _trade(uint256 _id, address _user, address _tokenGet, uint256 _amountGet, address _tokenGive,uint256 _amountGive) internal { // Others cannot call this function\n\n        uint256 _feeAmount = (_amountGive * feePercent) / 100;\n        // Execute trade\n        tokens[_tokenGet][msg.sender] = tokens[_tokenGet][msg.sender] - _amountGet;\n        tokens[_tokenGet][_user] = tokens[_tokenGet][_user] + _amountGet;\n        tokens[_tokenGive][msg.sender] = tokens[_tokenGet][msg.sender] + _amountGive;\n        tokens[_tokenGive][_user] = tokens[_tokenGet][_user] - _amountGive;\n        // Charge fees\n        tokens[_tokenGet][msg.sender] = tokens[_tokenGet][msg.sender] - _feeAmount;\n        tokens[_tokenGet][feeAccount] = tokens[_tokenGet][feeAccount] + _feeAmount; // The feeAccount gets the fee\n        // Emit a trade event\n        emit Trade(_id, _user, _tokenGet, _amountGet, _tokenGive, _amountGive, msg.sender, now);\n\n    }\n\n}\n\n",
  "sourcePath": "/home/life/code/ethereum/decentralized_ethereum_exchange/app/src/contracts/Exchange.sol",
  "compiler": {
    "name": "solc",
    "version": "0.5.16+commit.9c3226ce.Emscripten.clang"
  },
  "schemaVersion": "3.4.7",
  "updatedAt": "2022-04-24T14:35:44.285Z",
  "networkType": "ethereum",
  "devdoc": {
    "methods": {}
  },
  "userdoc": {
    "methods": {}
  }
}